{
  "abi": [
    {
      "inputs": [
        {
          "internalType": "contract IERC20Metadata",
          "name": "_token",
          "type": "address"
        },
        {
          "internalType": "contract IEntryPoint",
          "name": "_entryPoint",
          "type": "address"
        },
        {
          "internalType": "contract IOracle",
          "name": "_tokenOracle",
          "type": "address"
        },
        {
          "internalType": "contract IOracle",
          "name": "_nativeAssetOracle",
          "type": "address"
        },
        {
          "internalType": "address",
          "name": "_owner",
          "type": "address"
        }
      ],
      "stateMutability": "nonpayable",
      "type": "constructor"
    },
    {
      "anonymous": false,
      "inputs": [
        {
          "indexed": false,
          "internalType": "uint32",
          "name": "priceMarkup",
          "type": "uint32"
        },
        {
          "indexed": false,
          "internalType": "uint32",
          "name": "updateThreshold",
          "type": "uint32"
        }
      ],
      "name": "ConfigUpdated",
      "type": "event"
    },
    {
      "anonymous": false,
      "inputs": [
        {
          "indexed": true,
          "internalType": "address",
          "name": "previousOwner",
          "type": "address"
        },
        {
          "indexed": true,
          "internalType": "address",
          "name": "newOwner",
          "type": "address"
        }
      ],
      "name": "OwnershipTransferred",
      "type": "event"
    },
    {
      "anonymous": false,
      "inputs": [
        {
          "indexed": true,
          "internalType": "address",
          "name": "user",
          "type": "address"
        },
        {
          "indexed": false,
          "internalType": "uint256",
          "name": "actualTokenNeeded",
          "type": "uint256"
        },
        {
          "indexed": false,
          "internalType": "uint256",
          "name": "actualGasCost",
          "type": "uint256"
        }
      ],
      "name": "UserOperationSponsored",
      "type": "event"
    },
    {
      "inputs": [],
      "name": "REFUND_POSTOP_COST",
      "outputs": [
        {
          "internalType": "uint256",
          "name": "",
          "type": "uint256"
        }
      ],
      "stateMutability": "view",
      "type": "function"
    },
    {
      "inputs": [
        {
          "internalType": "uint32",
          "name": "unstakeDelaySec",
          "type": "uint32"
        }
      ],
      "name": "addStake",
      "outputs": [],
      "stateMutability": "payable",
      "type": "function"
    },
    {
      "inputs": [],
      "name": "deposit",
      "outputs": [],
      "stateMutability": "payable",
      "type": "function"
    },
    {
      "inputs": [],
      "name": "entryPoint",
      "outputs": [
        {
          "internalType": "contract IEntryPoint",
          "name": "",
          "type": "address"
        }
      ],
      "stateMutability": "view",
      "type": "function"
    },
    {
      "inputs": [],
      "name": "getDeposit",
      "outputs": [
        {
          "internalType": "uint256",
          "name": "",
          "type": "uint256"
        }
      ],
      "stateMutability": "view",
      "type": "function"
    },
    {
      "inputs": [],
      "name": "nativeAssetOracle",
      "outputs": [
        {
          "internalType": "contract IOracle",
          "name": "",
          "type": "address"
        }
      ],
      "stateMutability": "view",
      "type": "function"
    },
    {
      "inputs": [],
      "name": "owner",
      "outputs": [
        {
          "internalType": "address",
          "name": "",
          "type": "address"
        }
      ],
      "stateMutability": "view",
      "type": "function"
    },
    {
      "inputs": [
        {
          "internalType": "enum IPaymaster.PostOpMode",
          "name": "mode",
          "type": "uint8"
        },
        {
          "internalType": "bytes",
          "name": "context",
          "type": "bytes"
        },
        {
          "internalType": "uint256",
          "name": "actualGasCost",
          "type": "uint256"
        }
      ],
      "name": "postOp",
      "outputs": [],
      "stateMutability": "nonpayable",
      "type": "function"
    },
    {
      "inputs": [],
      "name": "previousPrice",
      "outputs": [
        {
          "internalType": "uint192",
          "name": "",
          "type": "uint192"
        }
      ],
      "stateMutability": "view",
      "type": "function"
    },
    {
      "inputs": [],
      "name": "priceDenominator",
      "outputs": [
        {
          "internalType": "uint256",
          "name": "",
          "type": "uint256"
        }
      ],
      "stateMutability": "view",
      "type": "function"
    },
    {
      "inputs": [],
      "name": "priceMarkup",
      "outputs": [
        {
          "internalType": "uint32",
          "name": "",
          "type": "uint32"
        }
      ],
      "stateMutability": "view",
      "type": "function"
    },
    {
      "inputs": [],
      "name": "priceUpdateThreshold",
      "outputs": [
        {
          "internalType": "uint32",
          "name": "",
          "type": "uint32"
        }
      ],
      "stateMutability": "view",
      "type": "function"
    },
    {
      "inputs": [],
      "name": "renounceOwnership",
      "outputs": [],
      "stateMutability": "nonpayable",
      "type": "function"
    },
    {
      "inputs": [],
      "name": "token",
      "outputs": [
        {
          "internalType": "contract IERC20",
          "name": "",
          "type": "address"
        }
      ],
      "stateMutability": "view",
      "type": "function"
    },
    {
      "inputs": [],
      "name": "tokenDecimals",
      "outputs": [
        {
          "internalType": "uint256",
          "name": "",
          "type": "uint256"
        }
      ],
      "stateMutability": "view",
      "type": "function"
    },
    {
      "inputs": [],
      "name": "tokenOracle",
      "outputs": [
        {
          "internalType": "contract IOracle",
          "name": "",
          "type": "address"
        }
      ],
      "stateMutability": "view",
      "type": "function"
    },
    {
      "inputs": [
        {
          "internalType": "address",
          "name": "newOwner",
          "type": "address"
        }
      ],
      "name": "transferOwnership",
      "outputs": [],
      "stateMutability": "nonpayable",
      "type": "function"
    },
    {
      "inputs": [],
      "name": "unlockStake",
      "outputs": [],
      "stateMutability": "nonpayable",
      "type": "function"
    },
    {
      "inputs": [
        {
          "internalType": "uint32",
          "name": "_priceMarkup",
          "type": "uint32"
        },
        {
          "internalType": "uint32",
          "name": "_updateThreshold",
          "type": "uint32"
        }
      ],
      "name": "updateConfig",
      "outputs": [],
      "stateMutability": "nonpayable",
      "type": "function"
    },
    {
      "inputs": [],
      "name": "updatePrice",
      "outputs": [],
      "stateMutability": "nonpayable",
      "type": "function"
    },
    {
      "inputs": [
        {
          "components": [
            {
              "internalType": "address",
              "name": "sender",
              "type": "address"
            },
            {
              "internalType": "uint256",
              "name": "nonce",
              "type": "uint256"
            },
            {
              "internalType": "bytes",
              "name": "initCode",
              "type": "bytes"
            },
            {
              "internalType": "bytes",
              "name": "callData",
              "type": "bytes"
            },
            {
              "internalType": "uint256",
              "name": "callGasLimit",
              "type": "uint256"
            },
            {
              "internalType": "uint256",
              "name": "verificationGasLimit",
              "type": "uint256"
            },
            {
              "internalType": "uint256",
              "name": "preVerificationGas",
              "type": "uint256"
            },
            {
              "internalType": "uint256",
              "name": "maxFeePerGas",
              "type": "uint256"
            },
            {
              "internalType": "uint256",
              "name": "maxPriorityFeePerGas",
              "type": "uint256"
            },
            {
              "internalType": "bytes",
              "name": "paymasterAndData",
              "type": "bytes"
            },
            {
              "internalType": "bytes",
              "name": "signature",
              "type": "bytes"
            }
          ],
          "internalType": "struct UserOperation",
          "name": "userOp",
          "type": "tuple"
        },
        {
          "internalType": "bytes32",
          "name": "userOpHash",
          "type": "bytes32"
        },
        {
          "internalType": "uint256",
          "name": "maxCost",
          "type": "uint256"
        }
      ],
      "name": "validatePaymasterUserOp",
      "outputs": [
        {
          "internalType": "bytes",
          "name": "context",
          "type": "bytes"
        },
        {
          "internalType": "uint256",
          "name": "validationData",
          "type": "uint256"
        }
      ],
      "stateMutability": "nonpayable",
      "type": "function"
    },
    {
      "inputs": [
        {
          "internalType": "address payable",
          "name": "withdrawAddress",
          "type": "address"
        }
      ],
      "name": "withdrawStake",
      "outputs": [],
      "stateMutability": "nonpayable",
      "type": "function"
    },
    {
      "inputs": [
        {
          "internalType": "address payable",
          "name": "withdrawAddress",
          "type": "address"
        },
        {
          "internalType": "uint256",
          "name": "amount",
          "type": "uint256"
        }
      ],
      "name": "withdrawTo",
      "outputs": [],
      "stateMutability": "nonpayable",
      "type": "function"
    },
    {
      "inputs": [
        {
          "internalType": "address",
          "name": "to",
          "type": "address"
        },
        {
          "internalType": "uint256",
          "name": "amount",
          "type": "uint256"
        }
      ],
      "name": "withdrawToken",
      "outputs": [],
      "stateMutability": "nonpayable",
      "type": "function"
    }
  ],
  "bytecode": {
    "object": "0x6101206040523480156200001257600080fd5b5060405162001d5b38038062001d5b8339810160408190526200003591620003f0565b836200004133620002ad565b6001600160a01b0390811660805285811660a05283811660e052821661010052600180546001600160c01b031665030d4000864760c51b1790556200008681620002fd565b846001600160a01b031663313ce5676040518163ffffffff1660e01b8152600401602060405180830381865afa158015620000c5573d6000803e3d6000fd5b505050506040513d601f19601f82011682018060405250810190620000eb919062000470565b620000f890600a620005b1565b60c08181525050826001600160a01b031663313ce5676040518163ffffffff1660e01b8152600401602060405180830381865afa1580156200013e573d6000803e3d6000fd5b505050506040513d601f19601f8201168201806040525081019062000164919062000470565b60ff16600814620001cf5760405162461bcd60e51b815260206004820152602a60248201527f50502d4552433230203a20746f6b656e206f7261636c6520646563696d616c73604482015269040daeae6e840c4ca40760b31b60648201526084015b60405180910390fd5b816001600160a01b031663313ce5676040518163ffffffff1660e01b8152600401602060405180830381865afa1580156200020e573d6000803e3d6000fd5b505050506040513d601f19601f8201168201806040525081019062000234919062000470565b60ff16600814620002a25760405162461bcd60e51b815260206004820152603160248201527f50502d4552433230203a206e6174697665206173736574206f7261636c6520646044820152700cac6d2dac2d8e640daeae6e840c4ca407607b1b6064820152608401620001c6565b5050505050620005c2565b600080546001600160a01b038381166001600160a01b0319831681178455604051919092169283917f8be0079c531659141344cd1fd0a4f28419497f9722a3daafe3b4186f6b6457e09190a35050565b620003076200037c565b6001600160a01b0381166200036e5760405162461bcd60e51b815260206004820152602660248201527f4f776e61626c653a206e6577206f776e657220697320746865207a65726f206160448201526564647265737360d01b6064820152608401620001c6565b6200037981620002ad565b50565b6000546001600160a01b03163314620003d85760405162461bcd60e51b815260206004820181905260248201527f4f776e61626c653a2063616c6c6572206973206e6f7420746865206f776e65726044820152606401620001c6565b565b6001600160a01b03811681146200037957600080fd5b600080600080600060a086880312156200040957600080fd5b85516200041681620003da565b60208701519095506200042981620003da565b60408701519094506200043c81620003da565b60608701519093506200044f81620003da565b60808701519092506200046281620003da565b809150509295509295909350565b6000602082840312156200048357600080fd5b815160ff811681146200049557600080fd5b9392505050565b634e487b7160e01b600052601160045260246000fd5b600181815b80851115620004f3578160001904821115620004d757620004d76200049c565b80851615620004e557918102915b93841c9390800290620004b7565b509250929050565b6000826200050c57506001620005ab565b816200051b57506000620005ab565b81600181146200053457600281146200053f576200055f565b6001915050620005ab565b60ff8411156200055357620005536200049c565b50506001821b620005ab565b5060208310610133831016604e8410600b841016171562000584575081810a620005ab565b620005908383620004b2565b8060001904821115620005a757620005a76200049c565b0290505b92915050565b60006200049560ff841683620004fb565b60805160a05160c05160e051610100516116e4620006776000396000818161041a0152818161078a0152610e300152600081816102700152818161075d0152610e030152600081816101d5015281816107b60152610e6f01526000818161049c0152818161082a01528181610f7801526111bb01526000818161037d015281816104e001528181610577015281816108780152818161090c0152818161098301528181610a100152610d7e01526116e46000f3fe60806040526004361061014b5760003560e01c80639e281a98116100b6578063cdcf4b9b1161006f578063cdcf4b9b146103e9578063d0e30db014610400578063efb1ad5d14610408578063f2fde38b1461043c578063f465c77e1461045c578063fc0c546a1461048a57600080fd5b80639e281a981461032b578063a9a234091461034b578063b0d691fe1461036b578063bb9fe6bf1461039f578063c23a5cea146103b4578063c399ec88146103d457600080fd5b8063673a7e2811610108578063673a7e28146102495780636c5ec25c1461025e578063715018a6146102aa5780638da5cb5b146102bf578063914e245a146102dd5780639dbdb9771461031557600080fd5b80630396cb6014610150578063205c2878146101655780633a34c83f146101855780633b97e856146101c35780633c2154bc146102055780633e04619d14610225575b600080fd5b61016361015e3660046112b4565b6104be565b005b34801561017157600080fd5b506101636101803660046112eb565b610549565b34801561019157600080fd5b506001546101a990600160e01b900463ffffffff1681565b60405163ffffffff90911681526020015b60405180910390f35b3480156101cf57600080fd5b506101f77f000000000000000000000000000000000000000000000000000000000000000081565b6040519081526020016101ba565b34801561021157600080fd5b50610163610220366004611317565b6105bb565b34801561023157600080fd5b506001546101a990600160c01b900463ffffffff1681565b34801561025557600080fd5b50610163610756565b34801561026a57600080fd5b506102927f000000000000000000000000000000000000000000000000000000000000000081565b6040516001600160a01b0390911681526020016101ba565b3480156102b657600080fd5b50610163610809565b3480156102cb57600080fd5b506000546001600160a01b0316610292565b3480156102e957600080fd5b506001546102fd906001600160c01b031681565b6040516001600160c01b0390911681526020016101ba565b34801561032157600080fd5b506101f7619c4081565b34801561033757600080fd5b506101636103463660046112eb565b61081d565b34801561035757600080fd5b5061016361036636600461134a565b610854565b34801561037757600080fd5b506102927f000000000000000000000000000000000000000000000000000000000000000081565b3480156103ab57600080fd5b5061016361086e565b3480156103c057600080fd5b506101636103cf3660046113d9565b6108e5565b3480156103e057600080fd5b506101f761096b565b3480156103f557600080fd5b506101f7620f424081565b6101636109fb565b34801561041457600080fd5b506102927f000000000000000000000000000000000000000000000000000000000000000081565b34801561044857600080fd5b506101636104573660046113d9565b610a5d565b34801561046857600080fd5b5061047c6104773660046113f6565b610ad6565b6040516101ba92919061144a565b34801561049657600080fd5b506102927f000000000000000000000000000000000000000000000000000000000000000081565b6104c6610af9565b604051621cb65b60e51b815263ffffffff821660048201527f00000000000000000000000000000000000000000000000000000000000000006001600160a01b031690630396cb609034906024016000604051808303818588803b15801561052d57600080fd5b505af1158015610541573d6000803e3d6000fd5b505050505050565b610551610af9565b60405163040b850f60e31b81526001600160a01b038381166004830152602482018390527f0000000000000000000000000000000000000000000000000000000000000000169063205c287890604401600060405180830381600087803b15801561052d57600080fd5b6105c3610af9565b62124f808263ffffffff1611156106215760405162461bcd60e51b815260206004820181905260248201527f50502d4552433230203a207072696365206d61726b757020746f6f206869676860448201526064015b60405180910390fd5b620f42408263ffffffff16101561067a5760405162461bcd60e51b815260206004820181905260248201527f50502d4552433230203a207072696365206d61726b65757020746f6f206c6f776044820152606401610618565b620f42408163ffffffff1611156106df5760405162461bcd60e51b8152602060048201526024808201527f50502d4552433230203a20757064617465207468726573686f6c6420746f6f206044820152630d0d2ced60e31b6064820152608401610618565b600180546001600160c01b0316600160c01b63ffffffff8581169182026001600160e01b031692909217600160e01b928516928302179092556040805192835260208301919091527ffed7660357162e9e060534e05beba94ac6e3bfb17b1f793bd7350aaed0e9e8c4910160405180910390a15050565b60006107817f0000000000000000000000000000000000000000000000000000000000000000610b53565b905060006107ae7f0000000000000000000000000000000000000000000000000000000000000000610b53565b9050816107db7f0000000000000000000000000000000000000000000000000000000000000000836114b5565b6107e591906114fd565b600180546001600160c01b0319166001600160c01b03929092169190911790555050565b610811610af9565b61081b6000610cdd565b565b610825610af9565b6108507f00000000000000000000000000000000000000000000000000000000000000008383610d2d565b5050565b61085c610d73565b61086884848484610de3565b50505050565b610876610af9565b7f00000000000000000000000000000000000000000000000000000000000000006001600160a01b031663bb9fe6bf6040518163ffffffff1660e01b8152600401600060405180830381600087803b1580156108d157600080fd5b505af1158015610868573d6000803e3d6000fd5b6108ed610af9565b60405163611d2e7560e11b81526001600160a01b0382811660048301527f0000000000000000000000000000000000000000000000000000000000000000169063c23a5cea90602401600060405180830381600087803b15801561095057600080fd5b505af1158015610964573d6000803e3d6000fd5b5050505050565b6040516370a0823160e01b81523060048201526000907f00000000000000000000000000000000000000000000000000000000000000006001600160a01b0316906370a0823190602401602060405180830381865afa1580156109d2573d6000803e3d6000fd5b505050506040513d601f19601f820116820180604052508101906109f69190611531565b905090565b60405163b760faf960e01b81523060048201527f00000000000000000000000000000000000000000000000000000000000000006001600160a01b03169063b760faf99034906024016000604051808303818588803b15801561095057600080fd5b610a65610af9565b6001600160a01b038116610aca5760405162461bcd60e51b815260206004820152602660248201527f4f776e61626c653a206e6577206f776e657220697320746865207a65726f206160448201526564647265737360d01b6064820152608401610618565b610ad381610cdd565b50565b60606000610ae2610d73565b610aed858585611038565b91509150935093915050565b6000546001600160a01b0316331461081b5760405162461bcd60e51b815260206004820181905260248201527f4f776e61626c653a2063616c6c6572206973206e6f7420746865206f776e65726044820152606401610618565b6000806000806000856001600160a01b031663feaf968c6040518163ffffffff1660e01b815260040160a060405180830381865afa158015610b99573d6000803e3d6000fd5b505050506040513d601f19601f82011682018060405250810190610bbd9190611564565b94509450509350935060008313610c165760405162461bcd60e51b815260206004820152601f60248201527f50502d4552433230203a20436861696e6c696e6b207072696365203c3d2030006044820152606401610618565b610c236202a300426115b4565b821015610c725760405162461bcd60e51b815260206004820152601b60248201527f50502d4552433230203a20496e636f6d706c65746520726f756e6400000000006044820152606401610618565b8369ffffffffffffffffffff168169ffffffffffffffffffff161015610cd35760405162461bcd60e51b815260206004820152601660248201527550502d4552433230203a205374616c6520707269636560501b6044820152606401610618565b5090949350505050565b600080546001600160a01b038381166001600160a01b0319831681178455604051919092169283917f8be0079c531659141344cd1fd0a4f28419497f9722a3daafe3b4186f6b6457e09190a35050565b816014528060345263a9059cbb60601b60005260206000604460106000875af13d156001600051141716610d69576390b8ec1860005260206000fd5b6000603452505050565b336001600160a01b037f0000000000000000000000000000000000000000000000000000000000000000161461081b5760405162461bcd60e51b815260206004820152601560248201527414d95b99195c881b9bdd08115b9d1c9e541bda5b9d605a1b6044820152606401610618565b6002846002811115610df757610df76115cd565b14610868576000610e277f0000000000000000000000000000000000000000000000000000000000000000610b53565b90506000610e547f0000000000000000000000000000000000000000000000000000000000000000610b53565b6001549091506001600160c01b0390811690600090848116907f000000000000000000000000000000000000000000000000000000000000000085021681610e9e57610e9e6114e7565b6001549190049150600160e01b900463ffffffff16620f42408082019084906001600160c01b0385160281610ed557610ed56114e7565b041180610f03575080620f42400383620f4240846001600160c01b03160281610f0057610f006114e7565b04105b15610f2957600180546001600160c01b0319166001600160c01b03841690811790915592505b60015460009069d3c21bcecceda100000090600160c01b900463ffffffff163a619c4002890102850204905080610f64602060008b8d6115e3565b610f6d9161160d565b1115610fd557610fd57f0000000000000000000000000000000000000000000000000000000000000000610fa5603460208c8e6115e3565b610fae9161162b565b60601c838c8c600090602092610fc6939291906115e3565b610fcf9161160d565b03610d2d565b610fe3603460208a8c6115e3565b610fec9161162b565b60408051838152602081018a905260609290921c917f472a42a044527b87df02c0ce8e6c00c0057fac40d6c424c93c24b02322eb14b5910160405180910390a250505050505050505050565b6001546060906000906001600160c01b03168082036110995760405162461bcd60e51b815260206004820152601860248201527f50502d4552433230203a207072696365206e6f742073657400000000000000006044820152606401610618565b600060146110ab610120890189611660565b9050039050806021600160f81b03166000146111095760405162461bcd60e51b815260206004820152601e60248201527f50502d4552433230203a20696e76616c69642064617461206c656e67746800006044820152606401610618565b60015460009069d3c21bcecceda100000090600160c01b900463ffffffff1660e08a0135619c40028801028402049050816020036111b65761114f610120890189611660565b61115e916034916014916115e3565b6111679161160d565b8111156111b65760405162461bcd60e51b815260206004820181905260248201527f50502d4552433230203a20746f6b656e20616d6f756e7420746f6f20686967686044820152606401610618565b6111ee7f00000000000000000000000000000000000000000000000000000000000000006111e760208b018b6113d9565b3084611247565b806111fc60208a018a6113d9565b60405160200161122892919091825260601b6bffffffffffffffffffffffff1916602082015260340190565b60408051601f1981840301815291905298600098509650505050505050565b60405181606052826040528360601b602c526323b872dd60601b600c52602060006064601c6000895af13d15600160005114171661128d57637939f42460005260206000fd5b600060605260405250505050565b803563ffffffff811681146112af57600080fd5b919050565b6000602082840312156112c657600080fd5b6112cf8261129b565b9392505050565b6001600160a01b0381168114610ad357600080fd5b600080604083850312156112fe57600080fd5b8235611309816112d6565b946020939093013593505050565b6000806040838503121561132a57600080fd5b6113338361129b565b91506113416020840161129b565b90509250929050565b6000806000806060858703121561136057600080fd5b84356003811061136f57600080fd5b9350602085013567ffffffffffffffff8082111561138c57600080fd5b818701915087601f8301126113a057600080fd5b8135818111156113af57600080fd5b8860208285010111156113c157600080fd5b95986020929092019750949560400135945092505050565b6000602082840312156113eb57600080fd5b81356112cf816112d6565b60008060006060848603121561140b57600080fd5b833567ffffffffffffffff81111561142257600080fd5b8401610160818703121561143557600080fd5b95602085013595506040909401359392505050565b604081526000835180604084015260005b81811015611478576020818701810151606086840101520161145b565b506000606082850101526060601f19601f8301168401019150508260208301529392505050565b634e487b7160e01b600052601160045260246000fd5b6001600160c01b038281168282168181028316929181158285048214176114de576114de61149f565b50505092915050565b634e487b7160e01b600052601260045260246000fd5b60006001600160c01b038381168061152557634e487b7160e01b600052601260045260246000fd5b92169190910492915050565b60006020828403121561154357600080fd5b5051919050565b805169ffffffffffffffffffff811681146112af57600080fd5b600080600080600060a0868803121561157c57600080fd5b6115858661154a565b94506020860151935060408601519250606086015191506115a86080870161154a565b90509295509295909350565b818103818111156115c7576115c761149f565b92915050565b634e487b7160e01b600052602160045260246000fd5b600080858511156115f357600080fd5b8386111561160057600080fd5b5050820193919092039150565b803560208310156115c757600019602084900360031b1b1692915050565b6bffffffffffffffffffffffff1981358181169160148510156116585780818660140360031b1b83161692505b505092915050565b6000808335601e1984360301811261167757600080fd5b83018035915067ffffffffffffffff82111561169257600080fd5b6020019150368190038213156116a757600080fd5b925092905056fea2646970667358221220c0b3c764fa587ff30b84f20afa91b587284d10e14c4c0e33b2f83474056cfd0c64736f6c63430008130033",
    "linkReferences": {}
  },
  "methodIdentifiers": {
    "REFUND_POSTOP_COST()": "9dbdb977",
    "addStake(uint32)": "0396cb60",
    "deposit()": "d0e30db0",
    "entryPoint()": "b0d691fe",
    "getDeposit()": "c399ec88",
    "nativeAssetOracle()": "efb1ad5d",
    "owner()": "8da5cb5b",
    "postOp(uint8,bytes,uint256)": "a9a23409",
    "previousPrice()": "914e245a",
    "priceDenominator()": "cdcf4b9b",
    "priceMarkup()": "3e04619d",
    "priceUpdateThreshold()": "3a34c83f",
    "renounceOwnership()": "715018a6",
    "token()": "fc0c546a",
    "tokenDecimals()": "3b97e856",
    "tokenOracle()": "6c5ec25c",
    "transferOwnership(address)": "f2fde38b",
    "unlockStake()": "bb9fe6bf",
    "updateConfig(uint32,uint32)": "3c2154bc",
    "updatePrice()": "673a7e28",
    "validatePaymasterUserOp((address,uint256,bytes,bytes,uint256,uint256,uint256,uint256,uint256,bytes,bytes),bytes32,uint256)": "f465c77e",
    "withdrawStake(address)": "c23a5cea",
    "withdrawTo(address,uint256)": "205c2878",
    "withdrawToken(address,uint256)": "9e281a98"
  },
  "id": 14
}