{
  "abi": [
    {
      "inputs": [
        {
          "internalType": "uint256",
          "name": "expectedTokenInBalance",
          "type": "uint256"
        },
        {
          "internalType": "uint256",
          "name": "actualTokenInBalance",
          "type": "uint256"
        }
      ],
      "name": "InconsistantSwapData",
      "type": "error"
    },
    {
      "inputs": [
        {
          "internalType": "uint256",
          "name": "tokenOutBalance",
          "type": "uint256"
        },
        {
          "internalType": "uint256",
          "name": "tokenInBalance",
          "type": "uint256"
        }
      ],
      "name": "NoTokenOutReceived",
      "type": "error"
    },
    {
      "inputs": [
        {
          "internalType": "uint256",
          "name": "previewedUnderlying",
          "type": "uint256"
        },
        {
          "internalType": "uint256",
          "name": "withdrawedUnderlying",
          "type": "uint256"
        }
      ],
      "name": "NotEnoughUnderlying",
      "type": "error"
    },
    {
      "inputs": [
        {
          "internalType": "address",
          "name": "router",
          "type": "address"
        }
      ],
      "name": "NotRouter",
      "type": "error"
    },
    {
      "inputs": [
        {
          "internalType": "string",
          "name": "reason",
          "type": "string"
        }
      ],
      "name": "SwapFailed",
      "type": "error"
    },
    {
      "anonymous": false,
      "inputs": [
        {
          "indexed": true,
          "internalType": "address",
          "name": "previousOwner",
          "type": "address"
        },
        {
          "indexed": true,
          "internalType": "address",
          "name": "newOwner",
          "type": "address"
        }
      ],
      "name": "OwnershipTransferStarted",
      "type": "event"
    },
    {
      "anonymous": false,
      "inputs": [
        {
          "indexed": true,
          "internalType": "address",
          "name": "previousOwner",
          "type": "address"
        },
        {
          "indexed": true,
          "internalType": "address",
          "name": "newOwner",
          "type": "address"
        }
      ],
      "name": "OwnershipTransferred",
      "type": "event"
    },
    {
      "anonymous": false,
      "inputs": [
        {
          "indexed": false,
          "internalType": "address",
          "name": "account",
          "type": "address"
        }
      ],
      "name": "Paused",
      "type": "event"
    },
    {
      "anonymous": false,
      "inputs": [
        {
          "indexed": true,
          "internalType": "address",
          "name": "router",
          "type": "address"
        },
        {
          "indexed": true,
          "internalType": "contract IERC20",
          "name": "token",
          "type": "address"
        }
      ],
      "name": "RouterApproved",
      "type": "event"
    },
    {
      "anonymous": false,
      "inputs": [
        {
          "indexed": true,
          "internalType": "address",
          "name": "router",
          "type": "address"
        },
        {
          "indexed": false,
          "internalType": "bool",
          "name": "allowed",
          "type": "bool"
        }
      ],
      "name": "RouterAuthorized",
      "type": "event"
    },
    {
      "anonymous": false,
      "inputs": [
        {
          "indexed": false,
          "internalType": "address",
          "name": "account",
          "type": "address"
        }
      ],
      "name": "Unpaused",
      "type": "event"
    },
    {
      "anonymous": false,
      "inputs": [
        {
          "indexed": true,
          "internalType": "address",
          "name": "router",
          "type": "address"
        },
        {
          "indexed": false,
          "internalType": "contract IERC20",
          "name": "tokenIn",
          "type": "address"
        },
        {
          "indexed": false,
          "internalType": "uint256",
          "name": "amount",
          "type": "uint256"
        }
      ],
      "name": "ZapAndDoSomething",
      "type": "event"
    },
    {
      "inputs": [],
      "name": "acceptOwnership",
      "outputs": [],
      "stateMutability": "nonpayable",
      "type": "function"
    },
    {
      "inputs": [
        {
          "internalType": "contract IERC20",
          "name": "token",
          "type": "address"
        },
        {
          "internalType": "address",
          "name": "router",
          "type": "address"
        }
      ],
      "name": "approveTokenForRouter",
      "outputs": [],
      "stateMutability": "nonpayable",
      "type": "function"
    },
    {
      "inputs": [
        {
          "internalType": "address",
          "name": "",
          "type": "address"
        }
      ],
      "name": "authorizedRouters",
      "outputs": [
        {
          "internalType": "bool",
          "name": "",
          "type": "bool"
        }
      ],
      "stateMutability": "view",
      "type": "function"
    },
    {
      "inputs": [],
      "name": "owner",
      "outputs": [
        {
          "internalType": "address",
          "name": "",
          "type": "address"
        }
      ],
      "stateMutability": "view",
      "type": "function"
    },
    {
      "inputs": [],
      "name": "pause",
      "outputs": [],
      "stateMutability": "nonpayable",
      "type": "function"
    },
    {
      "inputs": [],
      "name": "paused",
      "outputs": [
        {
          "internalType": "bool",
          "name": "",
          "type": "bool"
        }
      ],
      "stateMutability": "view",
      "type": "function"
    },
    {
      "inputs": [],
      "name": "pendingOwner",
      "outputs": [
        {
          "internalType": "address",
          "name": "",
          "type": "address"
        }
      ],
      "stateMutability": "view",
      "type": "function"
    },
    {
      "inputs": [],
      "name": "renounceOwnership",
      "outputs": [],
      "stateMutability": "nonpayable",
      "type": "function"
    },
    {
      "inputs": [
        {
          "internalType": "address",
          "name": "router",
          "type": "address"
        }
      ],
      "name": "toggleRouterAuthorization",
      "outputs": [],
      "stateMutability": "nonpayable",
      "type": "function"
    },
    {
      "inputs": [
        {
          "internalType": "address",
          "name": "newOwner",
          "type": "address"
        }
      ],
      "name": "transferOwnership",
      "outputs": [],
      "stateMutability": "nonpayable",
      "type": "function"
    },
    {
      "inputs": [],
      "name": "unpause",
      "outputs": [],
      "stateMutability": "nonpayable",
      "type": "function"
    },
    {
      "inputs": [],
      "name": "withdrawNativeToken",
      "outputs": [],
      "stateMutability": "nonpayable",
      "type": "function"
    },
    {
      "inputs": [
        {
          "internalType": "contract IERC20",
          "name": "token",
          "type": "address"
        }
      ],
      "name": "withdrawToken",
      "outputs": [],
      "stateMutability": "nonpayable",
      "type": "function"
    },
    {
      "inputs": [
        {
          "internalType": "contract IERC20",
          "name": "tokenIn",
          "type": "address"
        },
        {
          "internalType": "contract IERC20",
          "name": "tokenOut",
          "type": "address"
        },
        {
          "internalType": "address",
          "name": "router",
          "type": "address"
        },
        {
          "internalType": "uint256",
          "name": "amount",
          "type": "uint256"
        },
        {
          "internalType": "bytes",
          "name": "data",
          "type": "bytes"
        }
      ],
      "name": "zapAndDoSomething",
      "outputs": [],
      "stateMutability": "payable",
      "type": "function"
    }
  ],
  "bytecode": {
    "object": "0x608060405234801561001057600080fd5b5061001a3361002c565b6001805460ff60a01b19169055610098565b600180546001600160a01b031916905561004581610048565b50565b600080546001600160a01b038381166001600160a01b0319831681178455604051919092169283917f8be0079c531659141344cd1fd0a4f28419497f9722a3daafe3b4186f6b6457e09190a35050565b61122d806100a76000396000f3fe6080604052600436106100dd5760003560e01c80638456cb591161007f5780639e6f1f66116100595780639e6f1f6614610202578063ba72467e14610232578063e30c397814610252578063f2fde38b1461027057600080fd5b80638456cb591461019b57806389476069146101b05780638da5cb5b146101d057600080fd5b80635a18664c116100bb5780635a18664c1461012c5780635c975abb14610141578063715018a61461017157806379ba50971461018657600080fd5b806301fa5d56146100e257806330baa76a146101045780633f4ba83a14610117575b600080fd5b3480156100ee57600080fd5b506101026100fd366004611018565b610290565b005b61010261011236600461103c565b6102fd565b34801561012357600080fd5b50610102610610565b34801561013857600080fd5b50610102610622565b34801561014d57600080fd5b50600154600160a01b900460ff165b60405190151581526020015b60405180910390f35b34801561017d57600080fd5b50610102610659565b34801561019257600080fd5b5061010261066b565b3480156101a757600080fd5b506101026106e2565b3480156101bc57600080fd5b506101026101cb366004611018565b6106f2565b3480156101dc57600080fd5b506000546001600160a01b03165b6040516001600160a01b039091168152602001610168565b34801561020e57600080fd5b5061015c61021d366004611018565b60026020526000908152604090205460ff1681565b34801561023e57600080fd5b5061010261024d3660046110ef565b610777565b34801561025e57600080fd5b506001546001600160a01b03166101ea565b34801561027c57600080fd5b5061010261028b366004611018565b6107d9565b61029861084a565b6001600160a01b038116600081815260026020908152604091829020805460ff81161560ff19909116811790915591518281529192917f3565191e968a8e6d50912daf1b5cf3c33b6aad3a2325f8026c562e9c268b74d3910160405180910390a25050565b6001600160a01b038416600090815260026020526040902054849060ff1661034857604051632462ed0960e01b81526001600160a01b03821660048201526024015b60405180910390fd5b6103506108a4565b6000346000036103d4576040516370a0823160e01b81523060048201526001600160a01b038916906370a0823190602401602060405180830381865afa15801561039e573d6000803e3d6000fd5b505050506040513d601f19601f820116820180604052508101906103c29190611128565b90506103cf8689876108f1565b6103e1565b6103de3447611141565b90505b6104218685858080601f0160208091040260200160405190810160405280939291908181526020018383808284376000920191909152506109a692505050565b50600034156104305747610498565b6040516370a0823160e01b81523060048201526001600160a01b038a16906370a0823190602401602060405180830381865afa158015610474573d6000803e3d6000fd5b505050506040513d601f19601f820116820180604052508101906104989190611128565b9050818111156104c557604051632db0390560e11b8152600481018390526024810182905260440161033f565b604080516001600160a01b038b81168252602082018990528916917fa27f1074fd34efb689b30aa48038ffeeae6b037d38b805f48b4b02047efa3ac3910160405180910390a26040516370a0823160e01b81523060048201526001600160a01b038916906370a0823190602401602060405180830381865afa15801561054f573d6000803e3d6000fd5b505050506040513d601f19601f820116820180604052508101906105739190611128565b600003610605576040516370a0823160e01b81523060048201526001600160a01b038916906370a0823190602401602060405180830381865afa1580156105be573d6000803e3d6000fd5b505050506040513d601f19601f820116820180604052508101906105e29190611128565b6040516327a64d3760e01b8152600481019190915247602482015260440161033f565b505050505050505050565b61061861084a565b610620610a76565b565b61062a61084a565b60405133904780156108fc02916000818181858888f19350505050158015610656573d6000803e3d6000fd5b50565b61066161084a565b6106206000610acb565b60015433906001600160a01b031681146106d95760405162461bcd60e51b815260206004820152602960248201527f4f776e61626c6532537465703a2063616c6c6572206973206e6f7420746865206044820152683732bb9037bbb732b960b91b606482015260840161033f565b61065681610acb565b6106ea61084a565b610620610ae4565b6106fa61084a565b610656336040516370a0823160e01b81523060048201526001600160a01b038416906370a0823190602401602060405180830381865afa158015610742573d6000803e3d6000fd5b505050506040513d601f19601f820116820180604052508101906107669190611128565b6001600160a01b0384169190610b27565b61077f61084a565b6107956001600160a01b03831682600019610b8a565b816001600160a01b0316816001600160a01b03167fd01a1176903089ad7576f93faa5eb25da6415495d7363f6c73cb074a7ebc645a60405160405180910390a35050565b6107e161084a565b600180546001600160a01b0383166001600160a01b031990911681179091556108126000546001600160a01b031690565b6001600160a01b03167f38d16b8cac22d99fc7c124b9cd0de2d3fa1faef420bfe791d8c362d765e2270060405160405180910390a350565b6000546001600160a01b031633146106205760405162461bcd60e51b815260206004820181905260248201527f4f776e61626c653a2063616c6c6572206973206e6f7420746865206f776e6572604482015260640161033f565b600154600160a01b900460ff16156106205760405162461bcd60e51b815260206004820152601060248201526f14185d5cd8589b194e881c185d5cd95960821b604482015260640161033f565b6109066001600160a01b038316333084610c1f565b806001600160a01b03831663dd62ed3e336040516001600160e01b031960e084901b1681526001600160a01b0391821660048201529087166024820152604401602060405180830381865afa158015610963573d6000803e3d6000fd5b505050506040513d601f19601f820116820180604052508101906109879190611128565b10156109a1576109a16001600160a01b0383168483610b8a565b505050565b6060600080846001600160a01b031634856040516109c49190611186565b60006040518083038185875af1925050503d8060008114610a01576040519150601f19603f3d011682016040523d82523d6000602084013e610a06565b606091505b509150915081610a6c57835115610a325780604051634ecb9b6d60e01b815260040161033f91906111a2565b604051634ecb9b6d60e01b815260206004820152600e60248201526d2ab735b737bbb7103932b0b9b7b760911b604482015260640161033f565b9150505b92915050565b610a7e610c57565b6001805460ff60a01b191690557f5db9ee0a495bf2e6ff9c91a7834c1ba4fdd244a5e8aa4e537bd38aeae4b073aa335b6040516001600160a01b03909116815260200160405180910390a1565b600180546001600160a01b031916905561065681610ca7565b610aec6108a4565b6001805460ff60a01b1916600160a01b1790557f62e78cea01bee320cd4e420270b5ea74000d11b0c9f74754ebdbfc544b05a258610aae3390565b6040516001600160a01b0383166024820152604481018290526109a190849063a9059cbb60e01b906064015b60408051601f198184030181529190526020810180516001600160e01b03166001600160e01b031990931692909217909152610cf7565b604080516001600160a01b038416602482015260448082018490528251808303909101815260649091019091526020810180516001600160e01b031663095ea7b360e01b179052610bdb8482610dcc565b610c19576040516001600160a01b038416602482015260006044820152610c0f90859063095ea7b360e01b90606401610b53565b610c198482610cf7565b50505050565b6040516001600160a01b0380851660248301528316604482015260648101829052610c199085906323b872dd60e01b90608401610b53565b600154600160a01b900460ff166106205760405162461bcd60e51b815260206004820152601460248201527314185d5cd8589b194e881b9bdd081c185d5cd95960621b604482015260640161033f565b600080546001600160a01b038381166001600160a01b0319831681178455604051919092169283917f8be0079c531659141344cd1fd0a4f28419497f9722a3daafe3b4186f6b6457e09190a35050565b6000610d4c826040518060400160405280602081526020017f5361666545524332303a206c6f772d6c6576656c2063616c6c206661696c6564815250856001600160a01b0316610e739092919063ffffffff16565b9050805160001480610d6d575080806020019051810190610d6d91906111d5565b6109a15760405162461bcd60e51b815260206004820152602a60248201527f5361666545524332303a204552433230206f7065726174696f6e20646964206e6044820152691bdd081cdd58d8d9595960b21b606482015260840161033f565b6000806000846001600160a01b031684604051610de99190611186565b6000604051808303816000865af19150503d8060008114610e26576040519150601f19603f3d011682016040523d82523d6000602084013e610e2b565b606091505b5091509150818015610e55575080511580610e55575080806020019051810190610e5591906111d5565b8015610e6a57506001600160a01b0385163b15155b95945050505050565b6060610e828484600085610e8a565b949350505050565b606082471015610eeb5760405162461bcd60e51b815260206004820152602660248201527f416464726573733a20696e73756666696369656e742062616c616e636520666f6044820152651c8818d85b1b60d21b606482015260840161033f565b600080866001600160a01b03168587604051610f079190611186565b60006040518083038185875af1925050503d8060008114610f44576040519150601f19603f3d011682016040523d82523d6000602084013e610f49565b606091505b5091509150610f5a87838387610f65565b979650505050505050565b60608315610fd4578251600003610fcd576001600160a01b0385163b610fcd5760405162461bcd60e51b815260206004820152601d60248201527f416464726573733a2063616c6c20746f206e6f6e2d636f6e7472616374000000604482015260640161033f565b5081610e82565b610e828383815115610fe95781518083602001fd5b8060405162461bcd60e51b815260040161033f91906111a2565b6001600160a01b038116811461065657600080fd5b60006020828403121561102a57600080fd5b813561103581611003565b9392505050565b60008060008060008060a0878903121561105557600080fd5b863561106081611003565b9550602087013561107081611003565b9450604087013561108081611003565b935060608701359250608087013567ffffffffffffffff808211156110a457600080fd5b818901915089601f8301126110b857600080fd5b8135818111156110c757600080fd5b8a60208285010111156110d957600080fd5b6020830194508093505050509295509295509295565b6000806040838503121561110257600080fd5b823561110d81611003565b9150602083013561111d81611003565b809150509250929050565b60006020828403121561113a57600080fd5b5051919050565b81810381811115610a7057634e487b7160e01b600052601160045260246000fd5b60005b8381101561117d578181015183820152602001611165565b50506000910152565b60008251611198818460208701611162565b9190910192915050565b60208152600082518060208401526111c1816040850160208701611162565b601f01601f19169190910160400192915050565b6000602082840312156111e757600080fd5b8151801515811461103557600080fdfea264697066735822122037adb5611be7ef6c04c5e992d3df7371694f6b29af3fc989a10ce42d4a71a50864736f6c63430008130033",
    "linkReferences": {}
  },
  "methodIdentifiers": {
    "acceptOwnership()": "79ba5097",
    "approveTokenForRouter(address,address)": "ba72467e",
    "authorizedRouters(address)": "9e6f1f66",
    "owner()": "8da5cb5b",
    "pause()": "8456cb59",
    "paused()": "5c975abb",
    "pendingOwner()": "e30c3978",
    "renounceOwnership()": "715018a6",
    "toggleRouterAuthorization(address)": "01fa5d56",
    "transferOwnership(address)": "f2fde38b",
    "unpause()": "3f4ba83a",
    "withdrawNativeToken()": "5a18664c",
    "withdrawToken(address)": "89476069",
    "zapAndDoSomething(address,address,address,uint256,bytes)": "30baa76a"
  },
  "id": 57
}