{
  "abi": [
    {
      "inputs": [
        {
          "internalType": "contract IEntryPoint",
          "name": "entryPoint",
          "type": "address"
        },
        {
          "internalType": "contract Zapper",
          "name": "zapper",
          "type": "address"
        }
      ],
      "stateMutability": "nonpayable",
      "type": "constructor"
    },
    {
      "inputs": [
        {
          "internalType": "address",
          "name": "owner",
          "type": "address"
        },
        {
          "internalType": "uint256",
          "name": "salt",
          "type": "uint256"
        }
      ],
      "name": "createAccount",
      "outputs": [
        {
          "internalType": "contract Wallet",
          "name": "",
          "type": "address"
        }
      ],
      "stateMutability": "nonpayable",
      "type": "function"
    },
    {
      "inputs": [
        {
          "internalType": "address",
          "name": "owner",
          "type": "address"
        },
        {
          "internalType": "uint256",
          "name": "salt",
          "type": "uint256"
        }
      ],
      "name": "getAddress",
      "outputs": [
        {
          "internalType": "address",
          "name": "",
          "type": "address"
        }
      ],
      "stateMutability": "view",
      "type": "function"
    },
    {
      "inputs": [],
      "name": "walletImplementation",
      "outputs": [
        {
          "internalType": "contract Wallet",
          "name": "",
          "type": "address"
        }
      ],
      "stateMutability": "view",
      "type": "function"
    }
  ],
  "bytecode": {
    "object": "0x60a060405234801561001057600080fd5b50604051612af2380380612af283398101604081905261002f916100fe565b813060405161003d906100d9565b6001600160a01b03928316815291166020820152604001604051809103906000f080158015610070573d6000803e3d6000fd5b506001600160a01b039081166080819052604051634243517560e01b8152918316600483015290634243517590602401600060405180830381600087803b1580156100ba57600080fd5b505af11580156100ce573d6000803e3d6000fd5b505050505050610138565b6120ea80610a0883390190565b6001600160a01b03811681146100fb57600080fd5b50565b6000806040838503121561011157600080fd5b825161011c816100e6565b602084015190925061012d816100e6565b809150509250929050565b6080516108a861016060003960008181607a0152818161012401526101db01526108a86000f3fe608060405234801561001057600080fd5b50600436106100415760003560e01c80635fbfb9cf146100465780638117abc1146100755780638cb84e181461009c575b600080fd5b6100596100543660046102c4565b6100af565b6040516001600160a01b03909116815260200160405180910390f35b6100597f000000000000000000000000000000000000000000000000000000000000000081565b6100596100aa3660046102c4565b610188565b6000806100bc8484610188565b90506001600160a01b0381163b80156100d757509050610182565b6040516001600160a01b038616602482015260009060440160408051601f198184030181529181526020820180516001600160e01b031663189acdbd60e31b1790525190915060009086907f000000000000000000000000000000000000000000000000000000000000000090849061014f906102b7565b61015a929190610320565b8190604051809103906000f590508015801561017a573d6000803e3d6000fd5b509450505050505b92915050565b6040516001600160a01b0383166024820152600090819060440160408051601f19818403018152918152602080830180516001600160e01b031663189acdbd60e31b1790529051919250600091610203917f000000000000000000000000000000000000000000000000000000000000000091859101610320565b6040516020818303038152906040529050600060405180602001610226906102b7565b601f1982820381018352601f90910116604081905261024a91908490602001610362565b60408051601f198184030181529190528051602082012090915061026e8682610279565b979650505050505050565b600061028683833061028d565b9392505050565b6000604051836040820152846020820152828152600b8101905060ff815360559020949350505050565b6104e18061039283390190565b600080604083850312156102d757600080fd5b82356001600160a01b03811681146102ee57600080fd5b946020939093013593505050565b60005b838110156103175781810151838201526020016102ff565b50506000910152565b60018060a01b0383168152604060208201526000825180604084015261034d8160608501602087016102fc565b601f01601f1916919091016060019392505050565b600083516103748184602088016102fc565b8351908301906103888183602088016102fc565b0194935050505056fe60806040526040516104e13803806104e1833981016040819052610022916102de565b61002e82826000610035565b50506103fb565b61003e83610061565b60008251118061004b5750805b1561005c5761005a83836100a1565b505b505050565b61006a816100cd565b6040516001600160a01b038216907fbc7cd75a20ee27fd9adebab32041f755214dbc6bffa90cc0225b39da2e5c2d3b90600090a250565b60606100c683836040518060600160405280602781526020016104ba60279139610180565b9392505050565b6001600160a01b0381163b61013f5760405162461bcd60e51b815260206004820152602d60248201527f455243313936373a206e657720696d706c656d656e746174696f6e206973206e60448201526c1bdd08184818dbdb9d1c9858dd609a1b60648201526084015b60405180910390fd5b7f360894a13ba1a3210667c828492db98dca3e2076cc3735a920a3ca505d382bbc80546001600160a01b0319166001600160a01b0392909216919091179055565b6060600080856001600160a01b03168560405161019d91906103ac565b600060405180830381855af49150503d80600081146101d8576040519150601f19603f3d011682016040523d82523d6000602084013e6101dd565b606091505b5090925090506101ef868383876101f9565b9695505050505050565b60608315610268578251600003610261576001600160a01b0385163b6102615760405162461bcd60e51b815260206004820152601d60248201527f416464726573733a2063616c6c20746f206e6f6e2d636f6e74726163740000006044820152606401610136565b5081610272565b610272838361027a565b949350505050565b81511561028a5781518083602001fd5b8060405162461bcd60e51b815260040161013691906103c8565b634e487b7160e01b600052604160045260246000fd5b60005b838110156102d55781810151838201526020016102bd565b50506000910152565b600080604083850312156102f157600080fd5b82516001600160a01b038116811461030857600080fd5b60208401519092506001600160401b038082111561032557600080fd5b818501915085601f83011261033957600080fd5b81518181111561034b5761034b6102a4565b604051601f8201601f19908116603f01168101908382118183101715610373576103736102a4565b8160405282815288602084870101111561038c57600080fd5b61039d8360208301602088016102ba565b80955050505050509250929050565b600082516103be8184602087016102ba565b9190910192915050565b60208152600082518060208401526103e78160408501602087016102ba565b601f01601f19169190910160400192915050565b60b1806104096000396000f3fe608060405236601057600e6013565b005b600e5b601f601b6021565b6058565b565b600060537f360894a13ba1a3210667c828492db98dca3e2076cc3735a920a3ca505d382bbc546001600160a01b031690565b905090565b3660008037600080366000845af43d6000803e8080156076573d6000f35b3d6000fdfea26469706673582212205f66d035e8bbe6370b8cc06e6a61d57059c56313350dcda82aff152f77a5a97764736f6c63430008130033416464726573733a206c6f772d6c6576656c2064656c65676174652063616c6c206661696c6564a26469706673582212207be070536700a87489ceb16894fe5bbe41c0e62ec781f81921ad2079eb21623364736f6c6343000813003360e0604052306080523480156200001557600080fd5b50604051620020ea380380620020ea833981016040819052620000389162000069565b6001600160a01b0391821660c0521660a052620000a8565b6001600160a01b03811681146200006657600080fd5b50565b600080604083850312156200007d57600080fd5b82516200008a8162000050565b60208401519092506200009d8162000050565b809150509250929050565b60805160a05160c051611fa9620001416000396000818161036201528181610614015281816107d801528181610a8301528181610b5a01528181610d0401528181610d3e01528181610f29015261113201526000818161041c0152818161064601528181610ab50152610d700152600081816105050152818161054e01528181610860015281816108a001526109330152611fa96000f3fe60806040526004361061012d5760003560e01c806352d1902d116100ab578063bc197c811161006f578063bc197c81146103a6578063c399ec88146103d5578063c4d66de8146103ea578063c5c036991461040a578063d087d2881461043e578063f23a6e611461045357600080fd5b806352d1902d146102e05780638da5cb5b146102f5578063a64c526814610333578063b0d691fe14610353578063b61d27f61461038657600080fd5b80633a871cdd116100f25780633a871cdd1461023a578063424351751461026857806347e1da2a146102a55780634a58db19146102c55780634f1ef286146102cd57600080fd5b806223de291461014c57806301ffc9a714610173578063150b7a02146101a85780631d06d40d146101ed5780633659cfe61461021a57600080fd5b36610147576000805460ff60b01b1916600160b01b179055005b600080fd5b34801561015857600080fd5b50610171610167366004611699565b5050505050505050565b005b34801561017f57600080fd5b5061019361018e366004611749565b610480565b60405190151581526020015b60405180910390f35b3480156101b457600080fd5b506101d46101c3366004611773565b630a85bd0160e11b95945050505050565b6040516001600160e01b0319909116815260200161019f565b3480156101f957600080fd5b5061020d61020836600461189a565b6104d2565b60405161019f91906119ac565b34801561022657600080fd5b506101716102353660046119bf565b6104fb565b34801561024657600080fd5b5061025a6102553660046119dc565b6105e3565b60405190815260200161019f565b34801561027457600080fd5b506101716102833660046119bf565b600180546001600160a01b0319166001600160a01b0392909216919091179055565b3480156102b157600080fd5b506101716102c0366004611a73565b610609565b6101716107d6565b6101716102db366004611b0c565b610856565b3480156102ec57600080fd5b5061025a610926565b34801561030157600080fd5b5060005461031b906201000090046001600160a01b031681565b6040516001600160a01b03909116815260200161019f565b34801561033f57600080fd5b5061017161034e366004611773565b6109d9565b34801561035f57600080fd5b507f000000000000000000000000000000000000000000000000000000000000000061031b565b34801561039257600080fd5b506101716103a1366004611b5b565b610a78565b3480156103b257600080fd5b506101d46103c1366004611bb6565b63bc197c8160e01b98975050505050505050565b3480156103e157600080fd5b5061025a610b3a565b3480156103f657600080fd5b506101716104053660046119bf565b610bcb565b34801561041657600080fd5b5061031b7f000000000000000000000000000000000000000000000000000000000000000081565b34801561044a57600080fd5b5061025a610cdd565b34801561045f57600080fd5b506101d461046e366004611c53565b63f23a6e6160e01b9695505050505050565b60006001600160e01b03198216630a85bd0160e11b14806104b157506001600160e01b03198216630271189760e51b145b806104cc57506001600160e01b031982166301ffc9a760e01b145b92915050565b6060816040516020016104e59190611cbc565b6040516020818303038152906040529050919050565b6001600160a01b037f000000000000000000000000000000000000000000000000000000000000000016300361054c5760405162461bcd60e51b815260040161054390611d1e565b60405180910390fd5b7f00000000000000000000000000000000000000000000000000000000000000006001600160a01b0316610595600080516020611f2d833981519152546001600160a01b031690565b6001600160a01b0316146105bb5760405162461bcd60e51b815260040161054390611d6a565b6105c481610d33565b604080516000808252602082019092526105e091839190610dae565b50565b60006105ed610f1e565b6105f78484610f98565b905061060282611044565b9392505050565b336001600160a01b037f00000000000000000000000000000000000000000000000000000000000000001614806106685750336001600160a01b037f000000000000000000000000000000000000000000000000000000000000000016145b6106845760405162461bcd60e51b815260040161054390611db6565b8481146106c95760405162461bcd60e51b815260206004820152601360248201527277726f6e67206465737473206c656e6774687360681b6044820152606401610543565b82811461070f5760405162461bcd60e51b815260206004820152601460248201527377726f6e672076616c756573206c656e6774687360601b6044820152606401610543565b60005b858110156107cd576107bb87878381811061072f5761072f611e01565b905060200201602081019061074491906119bf565b86868481811061075657610756611e01565b9050602002013585858581811061076f5761076f611e01565b90506020028101906107819190611e17565b8080601f01602080910402602001604051908101604052809392919081815260200183838082843760009201919091525061109192505050565b806107c581611e5d565b915050610712565b50505050505050565b7f000000000000000000000000000000000000000000000000000000000000000060405163b760faf960e01b81523060048201526001600160a01b03919091169063b760faf99034906024016000604051808303818588803b15801561083b57600080fd5b505af115801561084f573d6000803e3d6000fd5b5050505050565b6001600160a01b037f000000000000000000000000000000000000000000000000000000000000000016300361089e5760405162461bcd60e51b815260040161054390611d1e565b7f00000000000000000000000000000000000000000000000000000000000000006001600160a01b03166108e7600080516020611f2d833981519152546001600160a01b031690565b6001600160a01b03161461090d5760405162461bcd60e51b815260040161054390611d6a565b61091682610d33565b61092282826001610dae565b5050565b6000306001600160a01b037f000000000000000000000000000000000000000000000000000000000000000016146109c65760405162461bcd60e51b815260206004820152603860248201527f555550535570677261646561626c653a206d757374206e6f742062652063616c60448201527f6c6564207468726f7567682064656c656761746563616c6c00000000000000006064820152608401610543565b50600080516020611f2d83398151915290565b600054600160b01b900460ff166109ef57600080fd5b60015460405163185d53b560e11b81526001600160a01b03909116906330baa76a908590610a3f9089908990731111111254eeb25477b68fb85ed929f73a9605829085908a908a90600401611e84565b6000604051808303818588803b158015610a5857600080fd5b505af1158015610a6c573d6000803e3d6000fd5b50505050505050505050565b336001600160a01b037f0000000000000000000000000000000000000000000000000000000000000000161480610ad75750336001600160a01b037f000000000000000000000000000000000000000000000000000000000000000016145b610af35760405162461bcd60e51b815260040161054390611db6565b610b34848484848080601f01602080910402602001604051908101604052809392919081815260200183838082843760009201919091525061109192505050565b50505050565b6040516370a0823160e01b81523060048201526000906001600160a01b037f000000000000000000000000000000000000000000000000000000000000000016906370a08231906024015b602060405180830381865afa158015610ba2573d6000803e3d6000fd5b505050506040513d601f19601f82011682018060405250810190610bc69190611ee1565b905090565b600054610100900460ff1615808015610beb5750600054600160ff909116105b80610c055750303b158015610c05575060005460ff166001145b610c685760405162461bcd60e51b815260206004820152602e60248201527f496e697469616c697a61626c653a20636f6e747261637420697320616c72656160448201526d191e481a5b9a5d1a585b1a5e995960921b6064820152608401610543565b6000805460ff191660011790558015610c8b576000805461ff0019166101001790555b610c9482611101565b8015610922576000805461ff0019169055604051600181527f7f26b83ff96e1f2b6a682f133852f6798a09c465da95921460cefb38474024989060200160405180910390a15050565b604051631aab3f0d60e11b8152306004820152600060248201819052906001600160a01b037f000000000000000000000000000000000000000000000000000000000000000016906335567e1a90604401610b85565b336001600160a01b037f0000000000000000000000000000000000000000000000000000000000000000161480610d925750336001600160a01b037f000000000000000000000000000000000000000000000000000000000000000016145b6105e05760405162461bcd60e51b815260040161054390611db6565b7f4910fdfa16fed3260ed0e7147f7cc6da11a60208b5b9406d12a635614ffd91435460ff1615610de657610de183611183565b505050565b826001600160a01b03166352d1902d6040518163ffffffff1660e01b8152600401602060405180830381865afa925050508015610e40575060408051601f3d908101601f19168201909252610e3d91810190611ee1565b60015b610ea35760405162461bcd60e51b815260206004820152602e60248201527f45524331393637557067726164653a206e657720696d706c656d656e7461746960448201526d6f6e206973206e6f74205555505360901b6064820152608401610543565b600080516020611f2d8339815191528114610f125760405162461bcd60e51b815260206004820152602960248201527f45524331393637557067726164653a20756e737570706f727465642070726f786044820152681a58589b195555525160ba1b6064820152608401610543565b50610de183838361121f565b336001600160a01b037f00000000000000000000000000000000000000000000000000000000000000001614610f965760405162461bcd60e51b815260206004820152601c60248201527f6163636f756e743a206e6f742066726f6d20456e747279506f696e74000000006044820152606401610543565b565b7f19457468657265756d205369676e6564204d6573736167653a0a3332000000006000908152601c829052603c8120611015610fd8610140860186611e17565b8080601f01602080910402602001604051908101604052809392919081815260200183838082843760009201919091525085939250506112449050565b6000546201000090046001600160a01b0390811691161461103a5760019150506104cc565b5060009392505050565b80156105e057604051600090339060001990849084818181858888f193505050503d806000811461084f576040519150601f19603f3d011682016040523d82523d6000602084013e61084f565b600080846001600160a01b031684846040516110ad9190611efa565b60006040518083038185875af1925050503d80600081146110ea576040519150601f19603f3d011682016040523d82523d6000602084013e6110ef565b606091505b50915091508161084f57805160208201fd5b6000805462010000600160b01b031916620100006001600160a01b03848116918202929092179092556040519182527f000000000000000000000000000000000000000000000000000000000000000016907f1f9fd8dea16b9de97abea8a881aae8710c7da8cb2b6be7fc3a293d2328d3dc1a9060200160405180910390a250565b6001600160a01b0381163b6111f05760405162461bcd60e51b815260206004820152602d60248201527f455243313936373a206e657720696d706c656d656e746174696f6e206973206e60448201526c1bdd08184818dbdb9d1c9858dd609a1b6064820152608401610543565b600080516020611f2d83398151915280546001600160a01b0319166001600160a01b0392909216919091179055565b61122883611268565b6000825111806112355750805b15610de157610b3483836112a8565b600080600061125385856112cd565b9150915061126081611312565b509392505050565b61127181611183565b6040516001600160a01b038216907fbc7cd75a20ee27fd9adebab32041f755214dbc6bffa90cc0225b39da2e5c2d3b90600090a250565b60606106028383604051806060016040528060278152602001611f4d6027913961145c565b60008082516041036113035760208301516040840151606085015160001a6112f7878285856114d4565b9450945050505061130b565b506000905060025b9250929050565b600081600481111561132657611326611f16565b0361132e5750565b600181600481111561134257611342611f16565b0361138f5760405162461bcd60e51b815260206004820152601860248201527f45434453413a20696e76616c6964207369676e617475726500000000000000006044820152606401610543565b60028160048111156113a3576113a3611f16565b036113f05760405162461bcd60e51b815260206004820152601f60248201527f45434453413a20696e76616c6964207369676e6174757265206c656e677468006044820152606401610543565b600381600481111561140457611404611f16565b036105e05760405162461bcd60e51b815260206004820152602260248201527f45434453413a20696e76616c6964207369676e6174757265202773272076616c604482015261756560f01b6064820152608401610543565b6060600080856001600160a01b0316856040516114799190611efa565b600060405180830381855af49150503d80600081146114b4576040519150601f19603f3d011682016040523d82523d6000602084013e6114b9565b606091505b50915091506114ca86838387611598565b9695505050505050565b6000807f7fffffffffffffffffffffffffffffff5d576e7357a4501ddfe92f46681b20a083111561150b575060009050600361158f565b6040805160008082526020820180845289905260ff881692820192909252606081018690526080810185905260019060a0016020604051602081039080840390855afa15801561155f573d6000803e3d6000fd5b5050604051601f1901519150506001600160a01b0381166115885760006001925092505061158f565b9150600090505b94509492505050565b60608315611607578251600003611600576001600160a01b0385163b6116005760405162461bcd60e51b815260206004820152601d60248201527f416464726573733a2063616c6c20746f206e6f6e2d636f6e74726163740000006044820152606401610543565b5081611611565b6116118383611619565b949350505050565b8151156116295781518083602001fd5b8060405162461bcd60e51b815260040161054391906119ac565b6001600160a01b03811681146105e057600080fd5b60008083601f84011261166a57600080fd5b5081356001600160401b0381111561168157600080fd5b60208301915083602082850101111561130b57600080fd5b60008060008060008060008060c0898b0312156116b557600080fd5b88356116c081611643565b975060208901356116d081611643565b965060408901356116e081611643565b95506060890135945060808901356001600160401b038082111561170357600080fd5b61170f8c838d01611658565b909650945060a08b013591508082111561172857600080fd5b506117358b828c01611658565b999c989b5096995094979396929594505050565b60006020828403121561175b57600080fd5b81356001600160e01b03198116811461060257600080fd5b60008060008060006080868803121561178b57600080fd5b853561179681611643565b945060208601356117a681611643565b93506040860135925060608601356001600160401b038111156117c857600080fd5b6117d488828901611658565b969995985093965092949392505050565b634e487b7160e01b600052604160045260246000fd5b604051601f8201601f191681016001600160401b0381118282101715611823576118236117e5565b604052919050565b600082601f83011261183c57600080fd5b81356001600160401b03811115611855576118556117e5565b611868601f8201601f19166020016117fb565b81815284602083860101111561187d57600080fd5b816020850160208301376000918101602001919091529392505050565b600060208083850312156118ad57600080fd5b82356001600160401b03808211156118c457600080fd5b818501915085601f8301126118d857600080fd5b8135818111156118ea576118ea6117e5565b8060051b6118f98582016117fb565b918252838101850191858101908984111561191357600080fd5b86860192505b8383101561194f578235858111156119315760008081fd5b61193f8b89838a010161182b565b8352509186019190860190611919565b9998505050505050505050565b60005b8381101561197757818101518382015260200161195f565b50506000910152565b6000815180845261199881602086016020860161195c565b601f01601f19169290920160200192915050565b6020815260006106026020830184611980565b6000602082840312156119d157600080fd5b813561060281611643565b6000806000606084860312156119f157600080fd5b83356001600160401b03811115611a0757600080fd5b84016101608187031215611a1a57600080fd5b95602085013595506040909401359392505050565b60008083601f840112611a4157600080fd5b5081356001600160401b03811115611a5857600080fd5b6020830191508360208260051b850101111561130b57600080fd5b60008060008060008060608789031215611a8c57600080fd5b86356001600160401b0380821115611aa357600080fd5b611aaf8a838b01611a2f565b90985096506020890135915080821115611ac857600080fd5b611ad48a838b01611a2f565b90965094506040890135915080821115611aed57600080fd5b50611afa89828a01611a2f565b979a9699509497509295939492505050565b60008060408385031215611b1f57600080fd5b8235611b2a81611643565b915060208301356001600160401b03811115611b4557600080fd5b611b518582860161182b565b9150509250929050565b60008060008060608587031215611b7157600080fd5b8435611b7c81611643565b93506020850135925060408501356001600160401b03811115611b9e57600080fd5b611baa87828801611658565b95989497509550505050565b60008060008060008060008060a0898b031215611bd257600080fd5b8835611bdd81611643565b97506020890135611bed81611643565b965060408901356001600160401b0380821115611c0957600080fd5b611c158c838d01611a2f565b909850965060608b0135915080821115611c2e57600080fd5b611c3a8c838d01611a2f565b909650945060808b013591508082111561172857600080fd5b60008060008060008060a08789031215611c6c57600080fd5b8635611c7781611643565b95506020870135611c8781611643565b9450604087013593506060870135925060808701356001600160401b03811115611cb057600080fd5b611afa89828a01611658565b6000602080830181845280855180835260408601915060408160051b870101925083870160005b82811015611d1157603f19888603018452611cff858351611980565b94509285019290850190600101611ce3565b5092979650505050505050565b6020808252602c908201527f46756e6374696f6e206d7573742062652063616c6c6564207468726f7567682060408201526b19195b1959d85d1958d85b1b60a21b606082015260800190565b6020808252602c908201527f46756e6374696f6e206d7573742062652063616c6c6564207468726f7567682060408201526b6163746976652070726f787960a01b606082015260800190565b6020808252602b908201527f6f6e6c7920656e74727920706f696e74206f722077616c6c657420666163746f60408201526a1c9e4818d85b8818d85b1b60aa1b606082015260800190565b634e487b7160e01b600052603260045260246000fd5b6000808335601e19843603018112611e2e57600080fd5b8301803591506001600160401b03821115611e4857600080fd5b60200191503681900382131561130b57600080fd5b600060018201611e7d57634e487b7160e01b600052601160045260246000fd5b5060010190565b6001600160a01b0387811682528681166020830152851660408201526060810184905260a06080820181905281018290526000828460c0840137600060c0848401015260c0601f19601f8501168301019050979650505050505050565b600060208284031215611ef357600080fd5b5051919050565b60008251611f0c81846020870161195c565b9190910192915050565b634e487b7160e01b600052602160045260246000fdfe360894a13ba1a3210667c828492db98dca3e2076cc3735a920a3ca505d382bbc416464726573733a206c6f772d6c6576656c2064656c65676174652063616c6c206661696c6564a2646970667358221220f3d3312c5add2b6cc8ec133265315e14b1fd693e6de130837fd13d219ade6f2364736f6c63430008130033",
    "linkReferences": {}
  },
  "methodIdentifiers": {
    "createAccount(address,uint256)": "5fbfb9cf",
    "getAddress(address,uint256)": "8cb84e18",
    "walletImplementation()": "8117abc1"
  },
  "id": 58
}